:1000000019C09EC431C030C02FC02EC02DC02CC01E
:100010002BC042C129C028C027C026C025C024C08B
:1000200023C022C021C020C01FC01EC01DC01CC0D4
:100030001BC01AC011241FBECFEFD4E0DEBFCDBF5E
:1000400011E0A0E0B1E0E2E0FFE002C005900D9217
:10005000A631B107D9F711E0A6E1B1E001C01D92C8
:10006000AD32B107E1F7D4C1CBCFCF93DF93CDB79A
:10007000DEB72D970FB6F894DEBF0FBECDBFDE0101
:100080001196E1E0F1E02DE001900D922150E1F7B1
:10009000823061F4862F992783709070892B19F430
:1000A0008DE190E008C08CE190E005C0FE01E80F12
:1000B000F11D818199272D960FB6F894DEBF0FBEF2
:1000C000CDBFDF91CF9108959C01E0EDF7E003C033
:1000D000CF010197F1F7215030408FEF2F3F3807C4
:1000E000B9F708951F93CF93DF9326B1C82FDD276B
:1000F00033270C2E02C0359527950A94E2F720FF8E
:1001000003C080E090E026C084E690E0DDDF86B1A9
:1001100099270C2E02C0959587950A94E2F780FFE7
:1001200006C082E390E0D0DF81E090E013C010E0F1
:1001300084E690E0C9DF86B199270C2E02C0959520
:1001400087950A94E2F780FDEFCF1F5F193081F7A2
:1001500082E090E0DF91CF911F91089581E080933C
:100160001F018093200188E08093210108958FEF83
:1001700099E067D380912301882349F580911D017F
:100180006AE041D6992791605CD380911D016AE0B5
:100190003AD6892F9927926054D380911B0180FF12
:1001A00006C080E895E04DD380E896E005C08FE07A
:1001B00095E047D38FE096E044D380911C016AE03C
:1001C00022D6992793603DD380911C0146C082308E
:1001D000F9F480911F016AE016D69927916031D316
:1001E00080911F016AE00FD6892F8068992792605D
:1001F00028D3809120016AE006D69927936021D305
:10020000809120016AE0FFD5892F8068992729C055
:10021000833051F580912101992768EE73E0FFD575
:10022000CB01029691600DD380912101992768EE50
:1002300073E0F5D564E670E0F2D5CB01926001D3AE
:10024000809121019927847690706AE070E0E7D56B
:10025000CB019360F6D2809121016AE0D4D5892F39
:1002600099279460EED208958130A9F48FE091E04F
:10027000E8D280911B016AE0C6D599279260E1D24D
:1002800080911B016AE0BFD5892F99279360D9D24D
:100290008FE094E0D6D208951F920F920FB60F927E
:1002A00011240F931F932F933F934F935F936F935B
:1002B0007F938F939F93AF93BF93EF93FF9380911F
:1002C0001701882309F047C080911B018F5F80933D
:1002D0001B0180911B018C3339F410921B0180911A
:1002E0001C018F5F80931C0180911C018C3339F4B9
:1002F00010921C0180911D018F5F80931D018091E0
:100300001D01883139F410921D0180911F018F5F0A
:1003100080931F01609121018091200100911F01B4
:100320001127A3DE992701960817190741F481E0E8
:1003300080931F01809120018F5F80932001809125
:1003400020018D3041F481E08093200180912101D2
:100350008F5F8093210180910001823051F4809160
:100360001C01882331F480911B018D3210F0A3D23F
:10037000ADD280911901882321F081508093190119
:1003800010C0F5DE80911601882359F0809100019C
:10039000813019F098D2A1D202C08DD297D210929A
:1003A000160180911801882301F180911B016AE0F8
:1003B0002AD59923D1F420E030E0D9018ED5802DC3
:1003C00090912401981719F0D901092E8ED521E0BA
:1003D00030E0D90182D5802D90910001981719F055
:1003E000D901092E82D510921801FF91EF91BF918A
:1003F000AF919F918F917F916F915F914F913F91BD
:100400002F911F910F910F900FBE0F901F90189575
:10041000FF920F931F93CF93DF93CDB7DEB724974F
:100420000FB6F894DEBF0FBECDBFA0E0B0E055D54B
:10043000802D9927282F80932401A1E0B0E04DD58D
:10044000802D9927382F80930001203118F083E008
:1004500080932401333018F081E080930001809173
:10046000240114D287B1837C87B988B18C6388B9A1
:10047000809170008C7F809370008091B6008062C4
:100480008093B6001092B2001092B4008091B10037
:1004900085608093B1008091B1008D7F8093B10021
:1004A0008091B6008571E1F787B3856087BB809145
:1004B0007000816080937000569A5E988091000170
:1004C0000FD481E080931F018093200188E0809306
:1004D0002101789485E006DE882369F0809123016C
:1004E0009927019664E070E09AD48093230181E01B
:1004F000809318013CDE84E0F5DD882309F430C1E7
:100500008FEF99E09ED1FF248FEF8093190121E0B6
:100510002F1580F080911D016AE075D48983809148
:100520001D0171D49A8380911C016DD48B838091BD
:100530001C012AC033E03F1598F080911F016AE04A
:1005400062D4898380911F015ED490689A838091E0
:10055000200159D48B838091200155D4906815C017
:1005600084E0F81609F0F6C082E0898380912101C9
:1005700064E649D48A838091210145D4892F6AE0B9
:1005800042D48B83809121013ED49C8385E0AADDF7
:10059000882311F0F110FA9484E0A4DD8111F39422
:1005A00083E0A0DD182F82E09DDD882311F01FEF8E
:1005B00004C0812F111181E0182FFF2089F42091B0
:1005C0001D01812F992787FD90953327285E3F4F86
:1005D000820F931F68E170E022D480931D0170C0E8
:1005E00021E0F21689F420911C01812F992787FDC3
:1005F00090953327245C3F4F820F931F6CE370E08C
:100600000ED480931C015CC032E0F31649F5609172
:1006100021018091200129DD482F80911F01642F45
:1006200077279B01280F311DC901212F332727FD73
:1006300030952F5F3F4F6F5F7F4F820F931FEFD338
:1006400080931F0180911F018823D1F5113019F487
:1006500010931F0135C01F3F99F540931F0130C013
:1006600033E0F316F9F420912001812F992787FDBB
:1006700090953327235F3F4F820F931F6DE070E00B
:10068000CED380932001809120018823C9F41130BA
:1006900019F41093200114C01F3F91F48CE0809353
:1006A00020010EC084E0F81659F4809121018823BE
:1006B00011F41F3F29F080912101810F80932101C6
:1006C0008091B200803440F08091B20087FF18C062
:1006D0008091B200803CA0F4E0E0F0E08F010F5F79
:1006E0001F4F902F8827EC0FFD1F21813327822B6E
:1006F000932BA7D00430110509F406CFF801EECFF3
:100700008091B200813428F48091B200813C08F4D9
:10071000FBCE24E0F21689F00F2D000F0270112796
:100720000F5F1F4F902F88278F608BD00F5F1F4F59
:10073000102F0027C8018F600BC08FE091E081D09F
:100740008FE092E07ED08FE093E07BD08FE094E06A
:1007500078D0DACE0CDD1092190184E690E0B4DC9A
:1007600083E0C0DC8823E9F180910001992701969C
:1007700063E070E054D38093000181E08093160120
:100780008093180180EF99E05CD08091000188236C
:1007900049F48EE791E055D087E492E052D087E4A7
:1007A00093E018C0823061F487E391E04AD08DE194
:1007B00092E047D08CE193E044D085E094E00DC016
:1007C000813061F48EE791E03CD086E792E039D049
:1007D00080E093E036D080E094E033D082E08093F4
:1007E000190182E07FDC882309F474CE8091240112
:1007F0009927019668E070E012D38093240121E0EC
:100800002093180199279A601CD08FEF99E019D096
:100810008AE091E016D0809124016AE0F4D2992711
:1008200092600FD0809124016AE0EDD2892F992740
:10083000936007D08AE094E004D082E080931901AD
:1008400049CE9C0188B18C7F88B9589880E037FFE9
:1008500002C0419A01C04198589A58988F5F8031E0
:1008600019F0220F331FF3CF409A40980895CF9389
:10087000DF93C1E0D0E09C2F88278F60E2DF2196D4
:10088000C930D105C1F7DF91CF91089597B1936039
:1008900097B9509A99279A60D4DF85E09BE0D1DF21
:1008A0008FEF99E0CEDFE3DF81E09CE0CADF80E0FC
:1008B0009FE0C7DF08955F9A289A80E090E0019753
:1008C000F1F728980895289A5F980895E9E6F0E0EE
:1008D000808182608083E89A089510921701E898D9
:1008E0000895CF93DF93CDB7DEB728970FB6F8946E
:1008F000DEBF0FBECDBF282FDE011196EEE0F1E086
:1009000088E001900D928150E1F790E0FE01319670
:10091000AE01475F5F4F20FF02C08081980F319684
:10092000E417F50711F02695F6CF892F9927289619
:100930000FB6F894DEBF0FBECDBFDF91CF91089503
:100940001F920F920FB60F9211246F927F928F9287
:100950009F92AF92BF92CF92DF92EF92FF920F934E
:100960001F932F933F934F935F936F937F938F9337
:100970009F93AF93BF93EF93FF938BB190E489273D
:100980008BB92091840030918500109285001092DF
:1009900084008091690080FF27C121543C4908F4FC
:1009A0007CC180911A018B3309F00BC11092B20007
:1009B00010921B0110921701809127018295869554
:1009C000877020912801422F4F70440F440F440F2D
:1009D000482B842F082E82958025082E8695869593
:1009E000802522952F7021703327992701969595A0
:1009F0008795817090702817390751F481E08093B2
:100A00001701842F6EDF80931C011092170105C01F
:100A1000809122018C598093220180912801829536
:100A20008695877020912901422F4770440F440F0B
:100A3000440F482B842F082E82958025082E8695FA
:100A4000869580252695269526952170332799270A
:100A5000019695958795817090702817390751F404
:100A600081E080931701842F3CDF80931D01109259
:100A7000170105C080912201865F80932201209199
:100A80002A01F22FF695F695F770AF2F0A2EA29550
:100A9000A0250A2EA695A695A025809129018295CC
:100AA0008F70422F43704295407F482B042E429511
:100AB0004025042E4695469540252295269527707B
:100AC000E0912B018E2F8370880F880F880F822B67
:100AD000082E82958025082E869586958025E69598
:100AE000E69560912C01262F2295220F220F207C63
:100AF0002E2B022E22952025022E26952695202586
:100B00006695669561707727BB27119655274F5FCD
:100B10005F4F4A275B2733272F5F3F4F9927019667
:100B200082279327842795279695879581709070C3
:100B300068177907A1F581E0809317018F2FD1DE27
:100B400080931E019091290192959F7080912A01B6
:100B500083708295807F892BC4DE80931F019091E2
:100B60002A0192959695977080912B018370880F3A
:100B7000880F880F892BB5DE8093200190912B017F
:100B80009695969580912C018295880F880F807C90
:100B9000892BA7DE809321011092170105C0809157
:100BA00022018F5F8093220180912201882349F4E2
:100BB00080910001823029F410921701E898289A58
:100BC0005F9810921A01109225011092260110923E
:100BD0002701109228011092290110922A011092E7
:100BE0002B0110922C0159C0C9018C5898408E5786
:100BF000934108F052C02F54324108F449C080910B
:100C00001A018C3308F044C000911A01112721E029
:100C100030E040E050E060E070E080E090E072D0D2
:100C2000A22EB32EC42ED52EE62EF72E082F192F66
:100C3000E0912501F0912601A0912701B0912801B2
:100C40009090290180902A0170902B0160902C01D6
:100C50002E2F2A293F2F3B294A2F4C295B2F5D2914
:100C6000692D6E29782D7F29872D802B962D912B2C
:100C700020932501309326014093270150932801AA
:100C80006093290170932A0180932B0190932C018A
:100C900080911A018F5F80931A018091690091E021
:100CA000892780936900FF91EF91BF91AF919F9148
:100CB0008F917F916F915F914F913F912F911F91F4
:100CC0000F91FF90EF90DF90CF90BF90AF909F90EB
:100CD0008F907F906F900F900FBE0F901F90189580
:100CE000579A209A289A813039F4E5DD809169007D
:100CF000826080936900E89A1092800084E080937B
:100D000081000895A0E1B0E0E7E8F6E0AFC0222E50
:100D1000332E442E552E662E772E882E992E0023A4
:100D200009F466C088E0FE01319611928A95E9F7D0
:100D300029833A834B835C836D837E838F8298877C
:100D4000E0E2E01B1E16CCF529813A814B815C81E3
:100D5000602F772767FD7095DA01C901062E04C060
:100D6000880F991FAA1FBB1F0A94D2F789879A87F9
:100D7000AB87BC8704C05695479537952795EA956C
:100D8000D2F78D819E81AF81B88504C0880F991FED
:100D9000AA1FBB1F6A95D2F7282B392B4A2B5B2B36
:100DA0002D873E874F87588B29843A844B845C84F7
:100DB0006D847E848F8498881BC019861A861B8652
:100DC0001C862E2F332727FD3095309521953F4FD8
:100DD00089819A81AB81BC8104C0880F991FAA1FA9
:100DE000BB1F2A95D2F78D879E87AF87B88BDCCF44
:100DF000222D332D442D552D662D772D882D992D9F
:100E0000E2E160964FC0991B79E004C0991F9617E4
:100E100008F0961B881F7A95C9F78095089597FB6F
:100E2000092E07260AD077FD04D00CD006D000206A
:100E30001AF4709561957F4F0895F6F79095819516
:100E40009F4F0895AA1BBB1B51E107C0AA1FBB1FE0
:100E5000A617B70710F0A61BB70B881F991F5A9546
:100E6000A9F780959095BC01CD0108952F923F92EE
:100E70004F925F926F927F928F929F92AF92BF92AA
:100E8000CF92DF92EF92FF920F931F93CF93DF9356
:100E9000CDB7DEB7CA1BDB0B0FB6F894DEBF0FBEB3
:100EA000CDBF09942A88398848885F846E847D8400
:100EB0008C849B84AA84B984C884DF80EE80FD8002
:100EC0000C811B81AA81B981CE0FD11D0FB6F89478
:100ED000DEBF0FBECDBFED010895F999FECFB2BDC3
:100EE000A1BDF89A119600B40895F999FECFB2BD4C
:100EF000A1BD00BC11960FB6F894FA9AF99A0FBEEC
:020F0000089552
:100F020001001F1C1F1E1F1E1F1F1E1F1E1F01026E
:060F120004080A14285037
:00000001FF
