:1000000019C032C031C030C02FC02EC02DC02CC08E
:100010002BC02AC029C028C027C026C025C024C0A4
:1000200023C022C075C020C01FC01EC01DC01CC080
:100030001BC01AC011241FBECFEFD4E0DEBFCDBF5E
:1000400011E0A0E0B1E0EAE3F7E002C005900D9214
:10005000A230B107D9F712E0A2E0B1E001C01D92D1
:10006000AF39B107E1F7F3C1CBCF9C01E0EDF7E089
:1000700003C0CF010197F1F7215030408FEF2F3FA0
:100080003807B9F70895FF920F931F93CF93DF932B
:100090008C01FC018081C62FDD2799270C2E02C020
:1000A000959587950A94E2F780FF03C080E090E081
:1000B00029C084E690E0D9DFF801808199270C2ED1
:1000C00002C0959587950A94E2F780FF06C082E307
:1000D00090E0CBDF81E090E015C0FF2484E690E063
:1000E000C4DFF801808199270C2E02C09595879571
:1000F0000A94E2F780FDEECFF394FAE0FF1671F771
:1001000082E090E0DF91CF911F910F91FF900895D1
:100110001F920F920FB60F9211240F931F932F93DC
:100120003F934F935F936F937F938F939F93AF937F
:10013000BF93CF93DF93EF93FF939091C6009A30D4
:1001400099F09D3089F0A2E0B1E0FD0131968191F6
:100150008D9321E0E930F207D1F790930801809167
:100160000B018F5F80930B0180910B01873008F4A6
:1001700059C180910301682F772780910401E82FEE
:10018000FF2780910501C82FDD2780910601A82F48
:10019000BB2780910701482F55279D012C0F3D1F3C
:1001A000CB018E0F9F1F840F951F280F391F205BD7
:1001B00030408091080199272817390709F032C18A
:1001C00010910201193499F0113409F4EFC0103282
:1001D00009F4B1C0133509F4AEC01C3409F4E6C00B
:1001E000123509F4A8C0133409F01CC1DFC0109205
:1001F0000B018AE090E09C01A29FC001A39F900D9B
:10020000B29F900D1124480F591F84E690E09C0185
:10021000C29FC001C39F900DD29F900D1124480F23
:10022000591F6053704080E797E1689F9001699F74
:10023000300D789F300D1124F09788EE93E0BC01CB
:10024000E69FC001E79F900DF69F900D1124280FA7
:10025000391F420F531F405D544150930A01409390
:10026000090110920E015A98123529F0133419F031
:10027000113419F458C05C9A01C05C9880910C014B
:10028000103209F44CC0882331F45B9808C05B9AA3
:1002900081E080930C018BB198E089278BB91335ED
:1002A00021F0133411F0193419F45B9810920C01F9
:1002B00003E011E0C1E0D0E0F80180819927C09708
:1002C0006AE070E005D2FC01282F4C2FC13059F0B4
:1002D000C23069F4809103019927C0976AE070E009
:1002E000F7D1892B39F4EE2359F0413011F0433026
:1002F00009F420689C2F88273327822B932B03C077
:100300009C2F88278F6072D10F5F1F4F2196C630B8
:10031000D10591F68091020180930D0183C088235D
:1003200009F4B5CFB8CF5C9A5B9A80910C01882311
:1003300009F0B1CFBDCF10920B018AE090E09C0193
:10034000A29FC001A39F900DB29F900D1124480F52
:10035000591F84E690E09C01C29FC001C39F900D8D
:10036000D29F900D1124480F591F6053704080E7B1
:1003700097E1689F9001699F300D789F300D11249F
:10038000F09788EE93E0BC01E69FC001E79F900DD7
:10039000F69F900D1124280F391F420F531F405D07
:1003A000544150930A01409309015DCF10920B0113
:1003B0008AE090E09C01A29FC001A39F900DB29F94
:1003C000900D1124480F591F84E690E09C01C29FB4
:1003D000C001C39F900DD29F900D1124480F591F4B
:1003E0006053704080E797E1689F9001699F300DEE
:1003F000789F300D1124F09788EE93E0BC01E69FC2
:10040000C001E79F900DF69F900D1124280F391F12
:10041000420F531F405D544150930A01409309011C
:100420005A9A22CFFF91EF91DF91CF91BF91AF9177
:100430009F918F917F916F915F914F913F912F91FC
:100440001F910F910F900FBE0F901F901895EF9274
:10045000FF920F931F93CF93DF9326982798559879
:100460002E9A2F9A5D9A8AB18C618AB98BB18B7E54
:100470008BB93D9A459A80910001CDD0FAD008D130
:10048000789466E083E290E0FEDD813069F480914B
:1004900000019927019660E170E01AD18093000174
:1004A00099279A60A3D006C0823021F488B190E2E7
:1004B000892788B980910D01833579F567E083E25A
:1004C00090E0E1DD882381F180910E01882361F5C0
:1004D000E5D0AFE0B1E0FD013296819191918D932D
:1004E0009D9382E0EF39F807C1F78091090190915F
:1004F0000A0190939E0280939D0210E05B9882E334
:1005000090E0B3DD5B9A86E990E0AFDD1F5F1230CB
:10051000A9F781E080930E01BBD080910D01893451
:1005200019F0833509F0ADCF4D99ABCFB7D0EE249C
:10053000FF24870120E0EFE0F1E0808191810097C6
:1005400039F0AA27BB27E80EF91E0A1F1B1F2F5FD1
:10055000329682E0EF39F80781F72223C9F033277A
:1005600044275527C801B701C6D089019A01C8019F
:1005700060E777E199D0EC0187E10037180750F088
:10058000C80160E777E190D0CB018068916004C03A
:10059000C0E0D0E08FE091E029D0CE0168EE73E0BA
:1005A00083D0CB01926022D0CE0168EE73E07CD084
:1005B00064E670E079D0CB018068936017D0CE01FB
:1005C00064E670E071D06AE070E06ED0CB019460B8
:1005D0000DD0CE016AE070E067D0956007D08CED59
:1005E00095E043DD4D9BFECF53D04BCF9C0188B1AE
:1005F000837E88B980E037FF02C0429A01C04298EA
:10060000439A43988F5F803119F0220F331FF3CF45
:10061000449A4498089597B19C6197B998B1937E94
:1006200098B999279A60E2DF84E09BE0DFDF8FEFE3
:1006300099E0DCDF8FE091E0D9DF8FE092E0D6DF58
:100640008FE093E0D3DF8FE094E0D0DF8FE095E0A0
:10065000CDDF8FE096E0CADF8FE097E0C7DF8FE065
:1006600098E0C4DF81E09CE0C1DF80E09FE0BEDF76
:10067000089580E18093C100E2ECF0E08081866023
:10068000808381E08093C50080EA8093C400089550
:10069000E1ECF0E08081806880830895E1ECF0E097
:1006A00080818F7780830895AA1BBB1B51E107C00F
:1006B000AA1FBB1FA617B70710F0A61BB70B881FF2
:1006C000991F5A95A9F780959095BC01CD01089581
:1006D00097FB092E07260AD077FD04D0E5DF06D068
:1006E00000201AF4709561957F4F0895F6F7909564
:1006F00081959F4F0895A1E21A2EAA1BBB1BFD01F5
:100700000DC0AA1FBB1FEE1FFF1FA217B307E407F0
:10071000F50720F0A21BB30BE40BF50B661F771F48
:10072000881F991F1A9469F7609570958095909528
:0A0730009B01AC01BD01CF0108954B
:02073A000500B8
:00000001FF
