:1000000099C0B2C0B1C0B0C0AFC0AEC0ADC0ACC08E
:10001000ABC0AAC0A9C0A8C0A7C0A6C005C1A4C043
:10002000A3C0A2C0A1C0A0C09FC09EC09DC09CC0D4
:100030009BC09AC0808386898C8F9295989C9FA242
:10004000A5A8ABAEB0B3B6B9BCBFC1C4C7C9CCCE0E
:10005000D1D3D5D8DADCDEE0E2E4E6E8EAECEDEF95
:10006000F0F2F3F5F6F7F8F9FAFBFCFCFDFEFEFF03
:10007000FFFFFFFFFFFFFFFFFFFFFEFEFDFCFCFB9E
:10008000FAF9F8F7F6F5F3F2F0EFEDECEAE8E6E46A
:10009000E2E0DEDCDAD8D5D3D1CECCC9C7C4C1BF4B
:1000A000BCB9B6B3B0AEABA8A5A29F9C9895928FF1
:1000B0008C898683807C797673706D6A6763605DF6
:1000C0005A5754514F4C494643403E3B38363331E2
:1000D0002E2C2A272523211F1D1B1917151312103B
:1000E0000F0D0C0A090807060504030302010100AD
:1000F00000000000000000000000010102030304F2
:1001000005060708090A0C0D0F1012131517191B05
:100110001D1F212325272A2C2E313336383B3E4004
:100120004346494C4F5154575A5D6063676A6D703E
:100130007376797C11241FBECFEFD4E0DEBFCDBF34
:1001400011E0A0E0B1E0EAE7F8E002C005900D920E
:10015000A230B107D9F711E0A2E0B1E001C01D92D1
:10016000A331B107E1F705C14BCF80910801882386
:1001700019F4449A2A9804C0813021F444982A9AA8
:100180005C980895823019F444982A985C9A0895EE
:10019000813059F4809108019927019663E070E05D
:1001A00059D380930801E1DF0895823019F58091D9
:1001B0000801882351F4809100019927019665E098
:1001C00070E048D3809300010895813051F480910C
:1001D00005019927019665E070E03CD38093050105
:1001E0000895823001F581E090910401891B80938C
:1001F00004010895833059F480910801823098F405
:1002000087B58F3F81F087B58F5F87BD08958430B4
:1002100051F480910801823030F487B5882319F0B9
:1002200087B5815087BD08951F920F920FB60F9228
:1002300011242F933F934F935F936F937F938F93EB
:100240009F93AF93BF93EF93FF9380910001882317
:1002500049F4E0910E01FF27EC5CFF4FE491E0933D
:10026000060125C080910001813039F480910E0192
:10027000881F8827881F819518C0809100018230CF
:1002800029F480910E0187FD81950FC080910001B6
:10029000833019F480910E0108C0809100018430F0
:1002A00031F480910F0186958695809306018091A7
:1002B0000501882349F4E0910D01FF27EC5CFF4F15
:1002C000E491E093070125C080910501813039F464
:1002D00080910D01881F8827881F819518C0809103
:1002E0000501823029F480910D0187FD81950FC0B1
:1002F00080910501833019F480910D0108C080912F
:100300000501843031F480911001869586958093A3
:10031000070180910E0190910F01943010F491E04B
:1003200002C096959695890F80930E0180910D01DC
:1003300090911001943010F491E002C0969596953A
:10034000890F80930D016091070180910601F3D11F
:10035000FF91EF91BF91AF919F918F917F916F919D
:100360005F914F913F912F910F900FBE0F901F9073
:100370001895CF92DF92EF92FF920F931F93CF9336
:10038000DF933C9A229A549A209A44982A985C982F
:10039000289AEBDED9D13D98249823982598459A40
:1003A0002C9A2B9A2D9AEDD1109270008091B0006A
:1003B00082608093B0008091B10087608093B1002B
:1003C0001092B20083EC8093B300B99A87B3809304
:1003D000B400219A10926F00809180008260809317
:1003E00080008091810088618093810080918000ED
:1003F0008068809380008091810083608093810079
:1004000010928500109284008FEF90E09093870007
:100410008093860081E090E090938900809388002B
:10042000B19A10926E0084B5826084BD85B58460F7
:1004300085BD16BC81E087BDA99A82E080936E00DD
:10044000789460E080E077D1CC24DD24EE24FF2492
:1004500000E010E05FC1C7E5D1E08BEFE816F104E2
:1004600039F08FEFE816F104C1F0EF2809F05BC016
:10047000B99904C02BEFE22EF12C57C080910201F4
:100480008F5F80930201809103018F5F809303014E
:10049000B99A9FEFE92EF12C48C08091040188237E
:1004A000A1F180918600909187008F3F910510F017
:1004B0004EEF06C08091860090918700482F4150F2
:1004C0008091880090918900019711F481E00AC021
:1004D0002091880030918900842F992728173907A7
:1004E00019F48FEF809301012091880030918900E9
:1004F00080910101992787FD909521503F4F820FF0
:10050000931F6FEF70E092D103C080911201992781
:10051000909389008093880080911101992790938E
:10052000870080938600EE24FF240115110529F031
:1005300081E003321807F1F50EC010920C0136C0AD
:1005400010920A01109209012AD110920B0117C0D2
:1005500057D103E211E080917A0084FF2DC0009111
:10056000090110910A0152D1080F111D10930A01BF
:100570000093090180910B018F5F80930B018091A3
:100580000B0185302CF320910C01E22FFF27E7FDB2
:10059000F095E15FFE4F8091090190910A0165E0BD
:1005A00070E044D160832F5F20930C0180910C0197
:1005B000843034F200E010E0C114D10421F080EF67
:1005C000C816D10471F480910201823321F080EFCA
:1005D000C82ED12C08C085B191E0892785B9109229
:1005E0000201CC24DD2481E0C134D80709F468C0BD
:1005F00081E0C234D807E0F481E0C633D80709F4BB
:100600004AC081E0C733D80740F42097A1F181E0C8
:10061000C433D80709F07EC034C081E0CB33D8079B
:1006200009F43EC081E0CF33D80709F073C03EC063
:1006300081E0CC34D80709F458C081E0CD34D80724
:1006400058F481E0C634D80709F43FC081E0CA34C9
:10065000D80709F05FC03FC081E0C535D80709F46D
:100660004FC081E0C735D80709F452C0C155D14009
:1006700009F050C03FC0359910C010920301C4E387
:10068000D1E0809103018A3008F4E7CE359B05C0A4
:10069000C6E3D1E0E2CE81E07BDDCBE3D1E0DDCE8D
:1006A0001C9910C010920301CFE3D1E080910301A7
:1006B0008A3008F4D2CE1C9B05C0C1E4D1E0CDCE77
:1006C00082E066DDC6E4D1E0C8CE1B9910C010926E
:1006D0000301CAE4D1E0809103018A3008F4BDCE61
:1006E0001B9B05C0CCE4D1E0B8CE83E051DDC1E571
:1006F000D1E0B3CE1D990EC010920301C5E5D1E043
:10070000809103018A3008F4A8CE1D99A4CE02C0BE
:1007100084E03EDDC0E0D0E0A0CE90E087FF02C0E4
:100720005E9A01C05E985F9A5F989F5F983011F063
:10073000880FF4CF08951F93162FEFDF812FEDDF81
:100740005D9A5D981F9108958AB1806E8AB98BB1C8
:100750008F718BB9089588E08093C100E2ECF0E0DE
:100760008081866080831092C50081E88093C400F8
:100770000895982F8091C00085FFFCCF9093C6000C
:100780000895ECE7F0E080818F778083808180643A
:100790008083EAE7F0E08081876880830895982F5E
:1007A00080917C00877F80937C00933021F480913E
:1007B0007C00887F15C0923049F480917C00897F4D
:1007C00080937C0080917C0081600AC0913059F454
:1007D00080917C008A7F80937C0080917C00826085
:1007E00080937C000895992351F480917C008B7F45
:1007F00080937C0080917C00836080937C000895CE
:10080000EAE7F0E080818064808308958091780039
:100810002091790099273327322F2227822B932B7F
:1008200064E070E017D0CB0199270895AA1BBB1B89
:1008300051E107C0AA1FBB1FA617B70710F0A61BE0
:10084000B70B881F991F5A95A9F780959095BC0101
:10085000CD01089597FB092E07260AD077FD04D015
:10086000E5DF06D000201AF4709561957F4F08955A
:0A087000F6F7909581959F4F0895CB
:02087A0001017A
:00000001FF
